:020000040800F2
:10000000C80700204D020008892B0008C1280008FD
:10001000872B0008DF150008892F0008000000006A
:10002000000000000000000000000000252C000877
:10003000ED16000800000000AD2B0008272C00087A
:1000400067020008670200086702000867020008EC
:1000500067020008670200086702000867020008DC
:1000600067020008670200086702000867020008CC
:1000700067020008670200086702000867020008BC
:1000800067020008670200086702000867020008AC
:10009000670200086702000867020008670200089C
:1000A000670200086702000867020008670200088C
:1000B000670200086702000867020008670200087C
:1000C000670200086702000867020008670200086C
:1000D00067020008712F00087D2F000867020008E2
:1000E000670200086702000867020008670200084C
:1000F000670200086702000867020008670200083C
:10010000670200086702000867020008670200082B
:10011000670200086702000867020008670200081B
:10012000670200086702000867020008670200080B
:1001300067020008670200086702000867020008FB
:1001400067020008670200086702000867020008EB
:1001500067020008670200086702000867020008DB
:1001600067020008670200086702000867020008CB
:10017000670200086702000867020008000000002C
:10018000670200086702000800F002F800F04EF86D
:100190000AA090E8000C82448344AAF10107DA45E2
:1001A00001D100F043F8AFF2090EBAE80F0013F0E6
:1001B000010F18BFFB1A43F0010318475035000028
:1001C00070350000103A24BF78C878C1FAD85207B9
:1001D00024BF30C830C144BF04680C6070470000C1
:1001E0000023002400250026103A28BF78C1FBD840
:1001F000520728BF30C148BF0B607047662903F023
:100200000F82782900F0FC80002070471FB503F0B2
:1002100002FA00F0A7FC04000020002103F06EF9B0
:10022000E06000F0FFF91FBD10B510BD00F09AFDB1
:100230001146FFF7EBFF02F071FF00F0B8FD03B4C9
:10024000FFF7F2FF03BC00F0FBFD00000948804708
:1002500009480047FEE7FEE7FEE7FEE7FEE7FEE7A8
:10026000FEE7FEE7FEE7FEE704480549054A064BC0
:1002700070470000C12C000889010008C801002057
:10028000C8070020C8030020C803002053EA020C5E
:1002900000F069802DE9F04B4FF00006002B1FBFE6
:1002A000B3FA83F503FA05F424FA05F65E4012BFAB
:1002B0001643B2FA82F502FA05F4C5F120051EBF15
:1002C00022FA05FC44EA0C04203556EA044C4FEAB5
:1002D000144418BF641C4FF000084FF0000990420E
:1002E00071EB030C39D3002919BFB1FA81F701FA78
:1002F00007F6B0FA80F700FA07F6C7F120071EBF2D
:1003000020FA07FC46EA0C062037B6FBF4FCA7EB04
:100310000507103F07F01F0BCBF120060CFA0BFB73
:100320002CFA06F644BFB3460026202FA4BF5E4633
:100330004FF0000B5BEA060C08BF4FF0010B19EB06
:100340000B09ABFB027C48EB0608C01B06FB02CC8A
:100350000BFB03CC71EB0C01C1E70B460246414697
:100360004846BDE8F08B13B54FF000004FF0000198
:10037000AFF30080BDE81C40704700000FB41CB50F
:100380000C0007AA009001D02044401E074B7B447C
:1003900069460190069800F0C4FB002C03D0694622
:1003A000002000F0D1FB1CBC5DF814FBC10700006D
:1003B00070B5044685690068C10601D5302600E0A5
:1003C0002026C00707D070BDD4E9012130469047F0
:1003D000206A401C20626D1EF6D570BD70B50446C3
:1003E00085690078C00707D170BDD4E901212020BC
:1003F0009047206A401C20626D1EF6D570BD00003B
:1004000070B504460D4621461068AFF30080218880
:10041000090502D50F4A7A4402E00E4A7A440E32A8
:10042000002104F1240305E000F00F060009965DA9
:100430005E54491C0028F7D120780023000704D51A
:10044000702D02D009B1022311322046BDE8704060
:1004500000F0FAB8223200002DE9F05F8946044628
:100460004FF0000ADFF824B1FB44C0F820A020467A
:10047000E168884700287DD0252806D0D4E90121ED
:100480009047206A401C2062F1E700255F46204625
:10049000E16888472028064607DB312E05D2B819C7
:1004A00010F8200C08B10543F1E7A80701D525F0A5
:1004B0000405C4F81CA00027C4F818A02A2E09D0EF
:1004C000304602F0A3FD38B304EB8708303EC8F88D
:1004D000186019E059F8041B204604EB870291616B
:1004E000E1688847012F064618D1E069002820DA24
:1004F00025F020051DE0D8F8180000EB800006EB81
:1005000040003038C8F818002046E16888470646A1
:1005100002F07CFD0028EED1012F0AD02E2E08D14A
:100520002046E16888477F1C0646022F45F02005DB
:10053000C4DBA069002803DA404245F00105A06150
:10054000E80701D025F01005A6B1A6F14100192851
:1005500002D8203645F400654A46314620462560DB
:100560004D46FFF74BFE60B1012807D0ED1D25F089
:10057000070000E007E000F1080978E705F1040949
:1005800075E730467AE7206ABDE8F09FF831000051
:1005900010B5431C02E010F8011B71B18107FAD1BC
:1005A0004FF0013202C88C1A8C4314EAC211F9D000
:1005B000C01A0A0603D0C01E10BDC01A10BD0A041E
:1005C00001D0801E10BD0902FCD0401E10BD4FF0AE
:1005D000000200B5134694469646203922BFA0E893
:1005E0000C50A0E80C50B1F12001BFF4F7AF09079F
:1005F00028BFA0E80C5048BF0CC05DF804EB890090
:1006000028BF40F8042B08BF704748BF20F8022BD2
:1006100011F0804F18BF00F8012B704770477047EA
:100620007047000070B5064C7C44064D7D4403E0E5
:10063000206820448047241DAC42F9D170BD0000E1
:100640001C3100001C3100002DE9F0470D46994691
:100650009246044600F124080168880604D5E06942
:1006600021F01001216000E00120A84201DD471BBC
:1006700000E00027A1697A1902EB0900081AA061BD
:100680002078C00602D42046FFF792FE002608E03C
:10069000D4E901211AF806009047206A401C761C14
:1006A00020624E45F4DB2078C0060AD52046FFF7CD
:1006B0007FFE06E0D4E9012130209047206A401CEB
:1006C0002062381EA7F10107F4DC07E0D4E901211C
:1006D00018F805009047206A401C2062281EA5F1EA
:1006E0000105F3DC2046FFF779FE2078000602D5ED
:1006F0000220BDE8F0870120FBE770472DE9FF4F9E
:100700000C461E464FF0FF378BB0D2E90001DDF8F2
:1007100060800A908A46C1F30A5505B93D4600211A
:1007200008464FF00000BAF1000F00F4400005DA6F
:1007300000EB80004FF4400101EA50004FEA90596D
:10074000B9F1010F00DDB9460A9850EA4A000ED00F
:1007500044F61050A5F2FF3545432F14B8F1000FB1
:100760001ED07542291E1EDDC9F100021CE0B8F141
:10077000010F4FF0000001D0302103E0F24305E00B
:100780002154401CB042FBDB3046002200212154A2
:100790000B99C1F80880C1E900200FB0BDE8F08FC7
:1007A000BD1B6D1CDEE74A4600DA694206A800F070
:1007B00063FA06AB93E8070003AB83E807005046F3
:1007C0000A9900F044FB8DE80700A0F500501F389F
:1007D00000900398002D0ADD42F21F014A460844AA
:1007E000002303A90390684600F0ADFD09E0A0F5E1
:1007F00000504A461F38002303A90390684600F0C2
:10080000B7FD8DE807000004000C03D04FF0FF3067
:10081000410800E01046B8F1000F03D0002200921A
:1008200015461EE0751E05D400F0A0F93032625561
:100830006D1EF9D5B3460122084302D000227F1C69
:1008400004E02078302801D100227F1E002A099779
:1008500084D01DE0112D07DA00F088F9303262559E
:100860006D1C50EA0102F5D1084302D00098C8B1CE
:100870000EE00021681E05E0235C625C6354225494
:10088000401E491C8142F7DBAB46A81B401E099065
:10089000002004F80B000B98099AC0F80880C0E902
:1008A000002B7AE711264FF0000857E72DE9F04FAB
:1008B00088460446D21D22F0070191B0D1E900011B
:1008C000CDE90A0102F061FB02460B98C00F01D08E
:1008D0002D2007E02068810701D52B2002E0202190
:1008E00001EAC000032A099001D0072A05DB03466C
:1008F0004146204600F080F90BE12078800601D5C2
:10090000E06900E00620B8F1650F814606D0B8F135
:10091000660F18D0B8F1670F70D131E00020B9F13F
:10092000110F009001DB112301E009F101030AAA74
:1009300001A90CA8FFF7E2FEDDE90C70002609F121
:100940000105834647E001204B4600904FF00047E9
:100950000AAA01A90CA8FFF7D1FEDDE90DB00C9998
:100960005D46002610B909F101000D18B9EB05002C
:1009700003D4C0F1FF3609F10105A5EB09002BE016
:10098000B9F1010F01DA4FF001090020B9F1110F9F
:100990000090484601DD112300E003460AAA01A9A0
:1009A0000CA8FFF7ABFEDDE90C704D460026834630
:1009B000207800070AD4AB4500DA5D4601A8012D76
:1009C00004DD411911F8011C302907D04F4502DA26
:1009D00017F1040F04DA012082460FE06D1EEEE7E6
:1009E000002F02DCED1B3E4403E0781CA84200DD32
:1009F0007D1CB81B00F1010A4FF00047207800076A
:100A000003D4AA4501DB4FF0FF3A0021B7F1004FB4
:100A10000DF143088DF8431024D002202B23002F22
:100A200001DA7F422D230A21021EA0F1010000DC21
:100A30005FB197FBF1FC97FBF1F201FB1C7C1746C1
:100A40000CF1300C08F801CDEEE7A8F101000370BD
:100A50002188090501D5452100E06521A0F10108A3
:100A600000F8011C09980FA9A1EB0807FF1D00B1B0
:100A70000120411901EBEA70A1693844081A401EAF
:100A8000A0612078C00602D42046FFF791FC0998A7
:100A900028B1D4E901219047206A401C20622078C7
:100AA000C00622D52046FFF783FC1EE0002E04DBA3
:100AB000B34502DD01A8805D00E03020D4E90121CA
:100AC0009047206A401C2062761CAAF101005FEA70
:100AD000000A0AD100F046F8C0680168405CD4E919
:100AE00001219047206A401C2062281EA5F10105C3
:100AF000DCDC07E0D4E9012118F8010B9047206AFB
:100B0000401C2062381EA7F10107F3DC2046FFF7E6
:100B100065FC032011B041E601694A1C02610878B6
:100B2000704700B58FB0CDE901310021059105492D
:100B30007944CDE9031011466846FFF78DFC0FB0EC
:100B400000BD0000E5FFFFFF0A6802F8010B0A6024
:100B50007047D1E900239A4202D2531C0B601070F7
:100B600070470000004870478401002030B5B0F1A4
:100B70000A024FEA900E71F100034EEA817EB0EB5B
:100B80000E0061EB91014FEA101E4EEA017E10EB60
:100B90000E0041EB11114FEA102E4EEA016E10EBE0
:100BA0000E0041EB11214FEA104E4EEA014E10EBC0
:100BB0000E0041EB1141401841F100014FEAD00015
:100BC00040EA41704FEAD10110EB80054FEA810401
:100BD00044EA907444EB01046D1944EB0404521B85
:100BE000A3414FF0000348BF0A3200D530BD401C7E
:100BF00041F1000130BD00002DE9F0411F460446DF
:100C000003260168072A01F4006004DB08B116A579
:100C100005E016A503E008B115A500E015A521F033
:100C200010002060A069C01EA0610FB1401EA0612D
:100C30002046FFF7BDFB4FB1D4E90121384690476C
:100C4000206A401C2062C01C206206E0206AFAE78D
:100C5000D4E9012115F8010B9047761EF8D2204601
:100C6000FFF7BCFBBDE8F0814E414E006E616E00A7
:100C7000494E4600696E66002DE9F04781461646EA
:100C80008AB0354878440DC88DE80D003248784464
:100C9000801C03AC0DC884E80D0041F69B3008446D
:100CA000372190FBF1F290FBF1F5A5F1800501FBF6
:100CB00012041B3C02D56442012000E00020DFF852
:100CC00098A080460027FA44AAF1BE0A0EE0E00789
:100CD0000AD03246684607EB470101230AEB81013F
:100CE00000F046FB8DE8070064107F1C002CEED15D
:100CF000194F7F44AE3F19E0E80715D007EB041009
:100D00000DF1180A90E80E008AE80E00C068F04263
:100D100001D1981908903246012306A903A800F0D2
:100D200027FB03AB83E807006D10641C002DE3D1A3
:100D30004FF0010332466946B8F1000F03A802D014
:100D400000F001FB01E000F013FBC9E90001C9F864
:100D500008200AB0BDE8F0876C2A00000048704700
:100D6000640100207546FFF7F9FFAE4605006946AD
:100D7000534620F00700854618B020B5FFF774FAF7
:100D8000BDE820404FF000064FF000074FF000088C
:100D90004FF0000B21F00701AC46ACE8C009ACE80D
:100DA000C009ACE8C009ACE8C0098D46704710B571
:100DB0000446AFF300802046BDE81040FFF73FBA7D
:100DC0004FF0013C50F8042B51F8043B9A4221D1DA
:100DD000A2EB0C03934313EACC1317D150F8042B66
:100DE00051F8043B9A4215D1A2EB0C03934313EA4A
:100DF000CC130BD150F8042B51F8043B9A4209D183
:100E0000A2EB0C03934313EACC13DBD04FF00000AA
:100E1000704700BFD01A01BAB1FA81F101F0180190
:100E200022FA01F0CB40C1F12001DBB2C0B2C01AFE
:100E30002CFA01F3D11A914311EAC311E6D170479C
:100E400001491820ABBEFEE72600020070475FEAAA
:100E5000400C08BF91F0000F4FEA8C234FEAC122EB
:100E600043EA51514FEA1C5018BF00F5F0404FEAD9
:100E7000300018BF41F000415FEA6C5C00F029804F
:100E8000BCF1FF3F08BF40F080407047130C06BF25
:100E900012044FF0100C4FF0000C130E04BF12029E
:100EA0000CF1080C130F04BF12010CF1040C930F8A
:100EB00004BF92000CF1020CD30F04BF52000CF1DE
:100EC000010C11464FF00002A0F11F00A0EB0C0036
:100ED000704711F0004F08BF704731F000413FF4F8
:100EE000D5AF0B0C06BF09044FF0100C4FF0000CEF
:100EF0000B0E04BF09020CF1080C0B0F04BF090113
:100F00000CF1040C8B0F04BF89000CF1020CCB0F09
:100F100004BF49000CF1010CCCF12003A0EB0C0044
:100F200022FA03F302FA0CF241EA030100F1010094
:100F3000704720F07F4C80EA030023F07F47ACEB42
:100F4000070303F57C5300F0004003F1FF032DE994
:100F500080494FEA154B09B44FEA144325EA0B4E7A
:100F600024EA03480FF2042606EB132749083E78CB
:100F70005FEA320203FB0667C7F5000707FB06F6C8
:100F80004FEA54374FEAD64606F1020607FB066CD5
:100F9000CCF1005C4FEA1C472CEA074C07FB06F437
:100FA0000CFB06F504EB15464FEA961634BF0020FD
:100FB0004FF000404FEAD13706FB07FC4FEA1C4CCC
:100FC0000CFB0BF7D21B03FB0CF761EB07010CFBCF
:100FD0000EF7B0EB074072EB17420CFB08F734BF7B
:100FE000A2EB0742B2EB074261EB17414FEA0C4418
:100FF0004FEA910706FB07FC4FEA1C4C0CFB0BF772
:10100000B0EBC74072EB573203FB0CF734BFA2EBD7
:10101000C742B2EBC74261EB57310CFB0EF7B0EBA6
:10102000C70072EB57720CFB08F734BFA2EBC70284
:10103000B2EBC70261EB5771039F4FEA816141EA4E
:10104000921104EBCC044FEAD1374FEA826206FBDF
:1010500007FC42EA90124FEA80604FEA1C4C0CFBFE
:101060000BF7D21B03FB0CF761EB07010CFB0EF730
:10107000B0EB074072EB17420CFB08F734BFA2EB52
:101080000742B2EB074261EB17414FEA8C554FEA3A
:10109000910704EB9C2406FB07FC4FEA1C4C0CFB5D
:1010A0000BF7B0EBC74072EB573203FB0CF734BFC2
:1010B000A2EBC742B2EBC74261EB57310CFB0EF714
:1010C000B0EBC70072EB57720CFB08F734BFA2EB12
:1010D000C702B2EBC70261EB577115EB4C254FEA23
:1010E000816141EA92114FEA82624FEAD13742EAC6
:1010F000901206FB07FC44F100044FEA80604FEABF
:101100001C4C0CFB0BF7D21B03FB0CF761EB07012C
:101110000CFB0EF7B0EB074072EB17420CFB08F725
:1011200034BFA2EB0742B2EB074261EB174115EB6C
:101130001C154FEA813141EA92414FEA823242EA7C
:1011400090424FEA80304FEA0C7644F1000448EABE
:1011500003434EEA0B484FF0000EB2EB080C71EB64
:10116000030724BF624639464EEB0E0E4FF0000BCC
:101170000018524149414BEB0B0BB2EB080C71EBE1
:1011800003077BF1000B24BF624639464EEB0E0E7F
:101190004FF0000B0018524149414BEB0B0BB2EBE7
:1011A000080C71EB03077BF1000B24BF6246394644
:1011B0004EEB0E0E51EA020718BF46F0010616EB81
:1011C0000E7655F1000254F1000103D5BDE8890106
:1011D000BDE80088BDE88901BDE80048B619524164
:1011E00041EB0101A3F10103704780807F7E7D7C8C
:1011F0007B7A7978777676757473727171706F6EA9
:101200006E6D6C6C6B6A6A69686867666665646453
:10121000636362616160605F5F5E5E5D5D5C5C5BDD
:101220005B5A5A595958585757565655555554544C
:10123000535352525251515050504F4F4F4E4E4DAA
:101240004D4D4C4C4C4B4B4B4A4A4A4949494848F6
:101250004847474747464646454545444444444336
:1012600043434342424242414141002B9C4630D4D9
:1012700077002BD01CB54FEA370703B44FF01000AE
:101280004FF01001BAF1000F06D0BCF1000FDCBF27
:1012900040F0080040F008014FF000000FBCBDE82E
:1012A00010400BF1010BBBF1010F08BF5FEA1707FC
:1012B00022BF12F1010211F101014FF0004143F18F
:1012C000000300F0004043EA00007047F9D35708DC
:1012D000D0E746EA064613F1400F4FEA16461FDDF7
:1012E00013F1200FDFBF16430A46002120335B4273
:1012F000BED0C3F1200746EA064602FA07F74FEAD6
:10130000164646EA0706C3F1200722FA03F201FA5D
:1013100007F721FA03F14FF0000342EA0702A7E7BB
:1013200046EA020646EA06464FEA164646EA01063D
:10133000BCBF46EA0646360C4FF000034FF00002F1
:101340004FF0000194E72DE9804C9A46934670B423
:1013500091E8380007C831EA400C48BF34EA430C32
:1013600003D5FFF7E6FDFFF780FFF0BCBDE8008C7A
:101370002DE9804C9A46934670B491E8380007C82E
:1013800010F0804F08BF13F0804F03D100F005F834
:10139000FFF76BFFF0BCBDE8008C20F07F4780EAD0
:1013A000030023F07F4C07EB0C03A3F57C5300F004
:1013B0000040A3F1FE0392F0000F00F0B38095F01F
:1013C000000F00F077802DE901494FEA11404FEA04
:1013D000144621EA004800FB06FC24EA064708FB05
:1013E00006F607FB08F800FB07F718EB06484CEB7E
:1013F000164C4FEA124B18EB07484FEA15464CEBD8
:10140000174022EA0B4E0BFB06FC25EA06470EFBB3
:1014100006F607FB0EFE0BFB07F71EEB064E4CEB2A
:10142000164C4FF000061EEB074E4CEB174B18EB1B
:101430000B0840F1000018EB0E0B58EB000840F1D0
:1014400000008F1A4FF000013CBFC943661B14BF58
:10145000B5EB040C00213CBFC943F61B4FEA17440F
:101460004EEA8E0E27EA04454FEA1C4704FB07624A
:101470002CEA074C05FB07F70CFB05F604FB0CFCFC
:1014800016EB074642EB174216EB0C4642EB1C42AA
:101490001BEB060658EB0202414146EA9E0601D5C7
:1014A000BDE80189B619524141EB0101A3F10103E5
:1014B000BDE801894FEA14454FEA114724EA054681
:1014C00021EA074C05FB07F406FB07F70CFB06F1C6
:1014D00005FB0CFC11EB074144EB17444FEA1247A4
:1014E00011EB0C4144EB1C4422EA074C05FB07F2CC
:1014F00006FB07F70CFB06F605FB0CFC16EB074694
:1015000042EB174216EB0C4642EB1C456A1854F1AD
:10151000000148BF7047B619524141EB0101A3F1E8
:101520000103704795F0000F37D04FEA11424FEAA0
:10153000144721EA024624EA074C02FB07F106FBA6
:1015400007F70CFB06F402FB0CFC14EB074441EB21
:1015500017414FEA154714EB0C4441EB1C4125EAB7
:10156000074C02FB07F506FB07F70CFB06F602FB30
:101570000CFC16EB074645EB174516EB0C4645EB06
:101580001C42121951F1000148BF7047B61952416F
:1015900041EB0101A3F1010370474FEA14454FEA03
:1015A000114724EA054621EA074C05FB07F106FB33
:1015B00007F70CFB06F24FF0000605FB0CFC12EBE4
:1015C000074241EB174112EB0C4251EB1C4148BF63
:1015D0007047921841EB0101A3F101037047FEE748
:1015E00010B504460298216022716371A071282011
:1015F000A0720620E0710C20207214206072082076
:10160000E072322000F0D0F800223321204600F0B2
:1016100038F800223321204600F033F8052000F08E
:10162000C3F800223221204600F02BF8052000F0FC
:10163000BBF800222021204600F023F8052000F00E
:10164000B3F8E1790022204600F01BF8217A00224D
:10165000204600F016F8617A0022204600F011F8CA
:10166000A17A0022204600F00CF800220121204639
:1016700000F007F820460022BDE810400221AFF339
:1016800000807CB506460807040EF07A01F0F005EC
:1016900018B145F0080544F00804012A01D02AB128
:1016A00008E045F0010544F0010403E025F00105E0
:1016B00024F0010445F004008DF80400012000F03E
:1016C00073F88DF8055044F004008DF806000120F1
:1016D00000F06AF84FF47A708DF807400090317985
:1016E000042301AA306800F033FA7CBD704772B65B
:1016F000FEE72DE9F0410446876D00F05FF90646EC
:1017000094F835000025022806D08020606584F812
:1017100034500120BDE8F0812068016821F01601F5
:1017200001602068416921F080014161206C08B9A5
:10173000A06C20B12068016821F0080101602068D8
:10174000016821F0010101600CE000F037F9801B15
:10175000052807D920206065032084F8350084F827
:101760003450D7E720680068C007EED194F85C10C9
:101770003F208840B860012084F8350084F8345058
:101780000020C7E790F83510022903D08021416579
:1017900001207047052180F835100068016821F0AC
:1017A000010101600020704770B5044600F006F9A1
:1017B0000546601C02D004480078044400F0FEF89E
:1017C000401BA042FAD370BD040000202DE9F84F61
:1017D000DFF8BCA10022012503264FF00F090AF112
:1017E000040BAAF1040E00BF0B6805FA02F42340B3
:1017F000A34270D10F7907F00307012F01D0022F08
:1018000016D187684FEA420806FA08FC27EA0C0757
:10181000D1F80CC00CFA08FC4CEA070CC0F808C060
:101820004768A7430C79C4F3001494403C434460D8
:101830000C79E443A4070AD0C4684FEA420C06FAC4
:101840000CF7BC438F6807FA0CF72743C7600C7985
:1018500004F00304022C12D1D40800EB840CDCF851
:1018600020405707FF0E09FA07F824EA0804D1F8C8
:10187000108008FA07F848EA0408CCF820800468C9
:101880004FEA420C06FA0CF7BC430F7907F0030746
:1018900007FA0CF7274307604C6814F4403F70D0F8
:1018A0003C4C276847F480472760246822F00307F0
:1018B00004F480440094384C07EB040CDCF808482E
:1018C00097074FEA177809FA08F7BC43334FB84235
:1018D00002D1002724E054E0314FB84201D1012762
:1018E0001EE0304FB84201D1022719E02E4FB84216
:1018F00001D1032714E02D4FB84201D104270FE096
:101900002B4FB84201D105270AE02A4FB84201D136
:10191000062705E0284FB84201D1072700E0082735
:1019200007FA08F72743CCF80878DAF8004057465A
:10193000D1F804C09C435FEACC2C00D51C433C602A
:10194000DBF800405F46D1F804C09C435FEA8C2C72
:1019500000D51C433C60DEF800407746D1F804C057
:101960009C435FEA8C3C00D51C433C60084F083F19
:101970003C68D1F804C09C435FEACC3C00D51C43D2
:101980003C60521C102AFFF42FAFBDE8F88F000016
:10199000083C014044380240003001400000024051
:1019A0000004024000080240000C02400010024007
:1019B0000014024000180240001C024001488068E8
:1019C000704700000400002070B5040025D094F892
:1019D0003D00002520B984F83C50204600F04EF927
:1019E000242084F83D002068016821F00101016095
:1019F0002068016841F4004101602068016821F419
:101A00000041016000F0A2FA4D4A6168914201D89C
:101A10004C4900E04C49884201D2012070BD4B493D
:101A20002368B0FBF1F15E6826F03F060E435E606E
:101A30006368934206D94FF4967359434FF47A730F
:101A4000B1FBF3F12368491C1E6A26F03F063143BF
:101A500019626168914210D84900401EB0FBF1F252
:101A6000521CC2F30B02042A01D2042022E0B0FB74
:101A7000F1F0401CC0F30B001CE0A268F2B301EBD4
:101A8000C10303EB0116431EB3FBF6F35B1C43F4E7
:101A900080431B0549D092B301EBC10202EB011157
:101AA000401EB0FBF1F0401CC0F30B0040F480403E
:101AB00040F400402168CA694CF6FF739A43104312
:101AC000C861D4E9071001432068026822F0C0020F
:101AD00011430160D4E9030101432068826848F2A0
:101AE000FF339A4311438160D4E90501084321681B
:101AF000CA6822F0FF021043C86001E00EE016E061
:101B00002068016841F0010101602564202084F80B
:101B10003D00256384F83E50002070BD01EB410676
:101B2000431EB3FBF6F35B1CB3E70120C2E701EBF6
:101B30004101401EB0FBF1F0401CC0F30B00B7E7C1
:101B4000A086010080841E0000093D0040420F0075
:101B50002DE9F84F1F4690468A460446DDF8289046
:101B6000FFF72CFF054694F83D0020287FD119236C
:101B7000012240492046009500F034FF002876D12C
:101B800094F83C00012872D0012084F83C002068C1
:101B90000168C90703D1016841F0010101602068B3
:101BA000016821F400610160212084F83D001020CB
:101BB00084F83E0000262664C4F824806785608D82
:101BC00020852D48E0622B464A465146204600F0CB
:101BD0008FFE90B9206841698069009036E02A46FE
:101BE0004946204600F0A4FF50B1206C042804D1DF
:101BF0002068016841F4007101600120BDE8F88FA0
:101C0000606A216800780861606A401C6062618DCA
:101C1000491E6185218D491E89B22185226853693B
:101C2000DB435B070BD451B100781061606A401C44
:101C30006062608D401E6085208D401E20852A4692
:101C40004946204600F0A2FE0028CED1208D002873
:101C5000C5D154F83D0B016841F4007101602020AA
:101C600004F81E09E67766770020C7E7FFE7022041
:101C7000C4E70000020010000000FFFF10B586B0AE
:101C8000044614216846FEF7A2FC134920688842E6
:101C900020D112480021026842F00202026000686E
:101CA00000F002000590C02000901220CDE9010153
:101CB000032003900420049069460948FFF786FD3D
:101CC00006481030016841F400110160006800F41A
:101CD0000010059006B010BD00540040303802409E
:101CE0000004024002488168027811448160704714
:101CF000040000200B4810B5016841F40071016038
:101D0000016841F480610160016841F48071016003
:101D1000032000F06FF80F2000F006F800F024F820
:101D2000002010BD003C024070B50D4D04464FF43C
:101D30007A712878B1FBF0F00A490968B1FBF0F03C
:101D400000F00CFB48B9102C07D200222146501E8F
:101D500000F030F800206C6070BD012070BD000004
:101D600004000020100000200A4808B5016841F472
:101D700080410160006800F4804000900548001F29
:101D8000016841F080510160006800F080500090CF
:101D900008BD000044380240002809DB00F01F02A3
:101DA000012191404009800000F1E020C0F80011BD
:101DB00070470000F0B40E4B1B680C46C3F30223BF
:101DC000C3F10705042D00D90425191D072901D2E7
:101DD000002300E0DB1E012606FA05F1491E214022
:101DE00099409E40761E16403143F0BC01F0E5B8A4
:101DF0000CED00E0064900F0070208684FF6FF030B
:101E0000184040EA0220034A10430860704700006F
:101E10000CED00E00000FA052DE9F0470E46050044
:101E200065D0DFF81481D8F80000F7B200F00700A1
:101E3000B04207D288F80070D8F8000000F0070020
:101E4000B04254D128683D4C810712D5400703D5D4
:101E5000206840F4E05020602878000703D520680F
:101E600040F4604020602068A96820F0F00008433A
:101E700020602878C0072DD03049686808390128CB
:101E800012D0022813D0032811D00968890700292D
:101E90002DDA216821F0030101432160FFF78EFD57
:101EA000814641F2883A0EE009688903EFE7096844
:101EB0008901ECE7FFF782FDA0EB0901514502D94A
:101EC0000320BDE8F0872068696800F00C00B0EBE3
:101ED000810FEFD1D8F80010404601F00701B14260
:101EE00007D90770006800F00700B04201D0012058
:101EF000E7E72878400705D52068E96820F4E05036
:101F0000084320602878000706D52068296920F456
:101F1000604040EAC100206000F038F82168084ABB
:101F2000C1F30311515CC8400649086006480068C7
:101F3000FFF7FAFE0020C4E7003C024008380240E8
:101F4000243600081000002008000020044805493D
:101F500000680968044AC1F38221515CC840704797
:101F600010000020083802403436000804480549B3
:101F700000680968044AC1F34231515CC8407047A7
:101F8000100000200838024034360008154810B50B
:101F9000006810F00C02144813D01449042A0FD022
:101FA000082A0ED10F4C241F2268236802F03F023A
:101FB0005B0207D52068C0F38810A0FB010106E092
:101FC000084610BD2168C1F38811A1FB0001002360
:101FD000FEF75CF92168C1F30141491C4900B0FBDF
:101FE000F1F010BD083802400024F40040787D0173
:101FF0002DE9F84F04006ED02078DFF84C93C0072D
:10200000A9F104054AD009F104000168C1F3810176
:10201000012908D00068C0F3810002280AD1D9F84C
:102020000000400206D52868800337D56068002884
:10203000E1D033E06068B0F5803F10D0B0F5A02F5C
:10204000286810D020F480302860286820F4802090
:1020500028606068A8B1FFF7B1FC06460DE028686B
:1020600040F48030F4E740F480202860F7E700BFB8
:10207000FFF7A4FC801B642873D828688003F7D579
:102080000CE0FFF79BFC064605E000BFFFF796FC5F
:10209000801B6428F0D828688003F7D42078DFF804
:1020A000AC8280074FF0000A3ED5A748001D0168AA
:1020B00011F00C0F08D00068C0F3810002280BD18A
:1020C000D9F80000400207D42868800716D5E068D8
:1020D000012800D112E033E1E068B8B10120C8F86E
:1020E0000000FFF76BFC064605E000BFFFF766FC4B
:1020F000801B0228C0D828688007F7D52868216986
:1021000020F0F80040EAC10028600DE0C8F800A007
:10211000FFF754FC064604E0FFF750FC801B022842
:102120001FD828688007F7D42078000722D5864F6B
:1021300087486169703771B101210160FFF73EFC8A
:10214000064604E0FFF73AFC801B022809D83868ED
:102150008007F7D50EE0C0F800A0FFF72FFC064679
:1021600005E082E0FFF72AFC801B02287DD8386852
:102170008007F7D42078400768D5DFF8CCB1002776
:102180000BF13C0BDBF80000C0000BD4DBF80010B7
:1021900041F08051CBF80010DBF80000012700F07F
:1021A000805000906B4E3068C00510D4306840F409
:1021B00080703060FFF702FC009005E0FFF7FEFB47
:1021C0000099401A022850D83068C005F6D55E4EF6
:1021D000A0686C3601280FD00528306810D020F098
:1021E00001003060306820F004003060A068B8B1B1
:1021F000FFF7E4FB00900FE0306840F00100F4E7E7
:1022000040F004003060F7E7FFF7D8FB0099411A6F
:1022100041F28830814266D830688007F4D50EE0FC
:10222000FFF7CCFB009007E0FFF7C8FB0099411ACD
:1022300041F28830814256D830688007F4D42FB1FB
:10224000DBF8001021F08051CBF80010A069C8B372
:102250003D49091D0968C1F3810102294AD00228BC
:10226000504607D0C8F8600000E03CE0FFF7A6FB4E
:1022700004463BE04746C8F86000FFF79FFB064670
:1022800005E000BFFFF79AFB801B02282BD82868C7
:102290008001F7D4D4E907010843A16A2E4A49080E
:1022A00002EB0141626A41EA8211084394F82C1062
:1022B00040EA0161C9F8001001203866FFF77EFB93
:1022C000044606E03EE000BFFFF778FB001B022853
:1022D00009D828688001F7D534E000BFFFF76EFB0E
:1022E000001B022802D90320BDE8F88F286880016E
:1022F000F4D427E00128F7D0D9F80000E26900F40F
:10230000800191421CD1226A00F03F01914217D115
:1023100047F6C071626A0140B1EB821F10D1A26A18
:102320004FF0FF3300F4403103EB5202B1EB024FA8
:1023300006D194F82C1000F07060B0EB016F01D062
:102340000120D1E70020CFE70438024000004742D7
:10235000800E4742007000400000FFFF10B5401E95
:10236000B0F1807F01D3012010BD4FF0E024606107
:102370000F21601700F021FE0020A06107202061DE
:10238000002010BD70477047F8B501680446086822
:10239000CA684B6910F00F0F4FF0000559D003F0D9
:1023A000010602F49077374365D0C10705D0D10507
:1023B00003D5616C41F001016164410705D5D9077E
:1023C00003D0616C41F002016164810705D5D90732
:1023D00003D0616C41F004016164010707D502F08C
:1023E0002001314303D0616C41F008016164616CEC
:1023F00000293AD0800604D5900602D5204600F088
:1024000096FC20684069616CC0F38010090700D415
:1024100060B3204600F064FC20684069400621D586
:102420002068143050E8001F21F0400140E80012FD
:10243000002AF5D1E06BA8B16E490165E06BFFF7AA
:10244000A1F9002811D0E06B016D01B0BDE8F040AA
:10245000084783060FD593060DD52046BDE8F84002
:1024600000F065BC2046FFF78EFFF8BD2046FFF761
:102470008AFF6564F8BD266B2023012E7DD1C60638
:102480007BD5D60679D508684868009048694FF032
:102490000206400641D5E16B086840680004000C64
:1024A000E8D0A28D8242E5D9E085C869B0F5807F89
:1024B0002DD020680C3050E8001F21F4807140E8D6
:1024C0000012002AF5D12068143050E8001F21F0D6
:1024D000010140E80012002AF5D12068143050E8CC
:1024E000001F21F0400140E80012002AF5D184F8D5
:1024F0004230256320680C3050E8001F21F01001A5
:1025000040E80012002AF5D1E06BFFF7F2F86663AD
:10251000A08DE18D401A81B22AE0A08DE18D401A94
:1025200081B2E08D0028A5D00029A3D022680C320A
:1025300052E8000F20F4907042E80007002FF5D118
:102540002068143050E8002F22F0010240E80027F4
:10255000002FF5D184F84230256320680C3050E814
:10256000002F22F0100240E80023002BF5D1666313
:102570002046FFF707FFF8BDFFE705062BD5150638
:1025800029D594F841002128F5D1A068B0F5805FE5
:1025900001D12069B0B1206A411C21622168007814
:1025A0004860E08C401E0004000CE084E3D1206809
:1025B000C16821F08001C1602068C16841F040011C
:1025C000C160D8E7206A0088C0F308004860206A2C
:1025D000801C2062E5E74006CDD55006CBD5CA6801
:1025E000204622F04002CA6084F8413000F067F9CA
:1025F000C1E70000D12C000870B5040004D094F8A5
:102600004100002510B106E0012070BD84F8405063
:10261000204600F023F8242084F841002068C16897
:1026200021F40051C160204600F0E2FB20680169FE
:1026300021F4904101612068416921F02A01416142
:102640002068C16841F40051C1606564202084F8AD
:10265000410084F842006563002070BDF0B587B08A
:10266000044614216846FDF7B2FF3A4B2768002262
:10267000394902240325072638489F4221D1364B89
:1026800014331F6847F010071F601B6803F0100326
:1026900005930B6843F001030B60096802AB01F07E
:1026A000010105916902CDE9001483E864006946DF
:1026B000FFF78CF8002211462520FFF77BFB252031
:1026C00024E0254BDFF898C01033674522D11F68FE
:1026D00047F400371F601B6803F4003305930B6851
:1026E00043F001030B60096802AF01F0010105919D
:1026F0000C21CDE9001487E864006946FFF766F80D
:10270000002211462620FFF755FB2620FFF744FB49
:1027100007B0F0BD13488742FAD1186840F4802012
:102720001860186800F480200590086840F00200E6
:102730000860086802AF00F0020005904FF44060A6
:10274000CDE9000487E8640069460748FFF73EF8D2
:10275000DEE7000000100140303802400000024077
:102760000044004000480040000402402DE9F84FBA
:10277000044690F842009A4616460D46202802D09C
:102780000220BDE8F88FB5B1AEB10020606422210F
:1027900084F842102063FFF711F9A6858146E6858B
:1027A000A0684FF480582027404501D1206920B10E
:1027B0002E46002529E00120E3E7002625E04B46D0
:1027C000002220212046CDF800A000F097FB18B190
:1027D00084F842700320D4E726B1A06840451AD09F
:1027E00038B108E020684068C0F3080025F8020B03
:1027F00008E0206978B12068406800F07F0000BFE1
:1028000006F8010BE08D401EE085E08D0028D6D152
:1028100084F84270B5E720684068F1E770472DE919
:10282000F843044690F84100984616460D46202885
:1028300002D00220BDE8F88385B17EB1002060643B
:10284000212084F84100FFF7B9F8A6848146E68488
:10285000A0682027B0F5805F02D003E00120E9E7FF
:10286000206910B12E4600250EE000260CE08021E4
:10287000204600F043FBA8B9C6B116F8010B216849
:102880004860E08C401EE084E08C4B464FF0000234
:10289000CDF800800028EAD14FF04001204600F03A
:1028A0002DFB40B184F841700320C3E735F8020BDB
:1028B000C0F30800E3E784F841700020BAE77047EE
:1028C000FEE701684A69D24352050FD46FF4806273
:1028D0004A61002140F8301F20224273817302694F
:1028E00042F004020261017301207047002070472A
:1028F000F8B50446C06A1E460D461746082807D09C
:10290000012805D010F5803F02D0206B122804D199
:102910002068016841F480710160134600224FF085
:1029200001112046009600F05DF840B12068006873
:10293000C00502D54FF4007020640320F8BD206963
:10294000B0F5804F0ED00620216800EAD51040F087
:10295000F000086133463A460B49204600F08AF8F9
:1029600078B902E005F0FE0000E0E8B221680861F5
:10297000054933463A46891F204600F07BF8002877
:10298000DCD00120F8BD00000800010070B516463B
:102990000D4604461EE02046FFF793FF08B10120D4
:1029A00070BD681C16D0FFF709F8801BA84200D83C
:1029B00085B920684069C04340070BD5002044F822
:1029C000300F20216173A073216941F02001216142
:1029D0002073E4E720684069C0434007DBD400204F
:1029E00070BD00002DE9F047984617460D46044695
:1029F000C1F30746DDF820902AE000BFB8F1FF3FA1
:102A000026D0FEF7DBFFA0EB0901414502D8B8F163
:102A1000000F1DD12068012E16D0806925EA000024
:102A20000004000C12D00020B84211D1002044F85C
:102A3000300F20216173A073216941F020012161D1
:102A400020730120BDE8F0874069E7E70120EBE74C
:102A50002068012E0AD0806925EA00000004000CDD
:102A600006D00020B842C9D00020EBE74069F3E768
:102A70000120F7E72DE9F047984616460D46044633
:102A80004FF000094FF0200AC1F3074723E0206808
:102A90004069C043400515D42068016841F40071C5
:102AA000016021686FF480604861C4F8309084F858
:102AB0003DA084F83E90216C41F00401216484F82B
:102AC0003C9021E0701C06D0FEF778FFA0EB0800D8
:102AD000B04203D816B1012F1FD021E02068012F8A
:102AE00015D0806925EA00000004000C18D000BF52
:102AF00044F8309F84F80DA084F80E90216941F0CD
:102B00002001216184F80C900120BDE8F087406924
:102B100025EA00000004000CEAD12068406901E0C9
:102B20002068806925EA00000004000CAFD1ECE7C2
:102B300070B516460D4604461EE02046FFF7C1FE5E
:102B400008B1012070BD681C16D0FEF737FF801B4E
:102B5000A84200D885B920684069C04300060BD55B
:102B6000002044F8300F20216173A073216941F0E7
:102B7000200121612073E4E720684069C04300061A
:102B8000DBD4002070BDFEE7FEE7000010B5044670
:102B9000FDF7FEFC214682B2BDE810404FF0FF3346
:102BA0000148FFF73CBE0000D40000207047000041
:102BB00030B593B06423082210A91948FFF7D6FD59
:102BC000002827D19DF84000012823D1BDF84500F9
:102BD00040BAA0F5206013381ED001281ED002286C
:102BE0001CD0032816D1082404F1090540216846A9
:102BF000FDF7EDFCDDE91001CDE90001621C642365
:102C0000074802A9FFF7B2FD002803D1294668460C
:102C100000F008FB13B030BD0C24E5E70424E3E723
:102C20008C0000207047FFF75DB8000030B593B00E
:102C300030216846FDF7CBFC14210CA8FDF7C7FC3A
:102C40001D480025016841F080510160006800F0D6
:102C5000805011901948016841F48041016000687A
:102C6000022400F480401190012003901020049071
:102C7000009406940820CDE907506420CDE90904AA
:102C800004200B906846FFF7B3F908B172B6FEE76F
:102C90000CA90F2081E831004FF4A0500F904FF4A1
:102CA0008050109003210CA8FFF7B6F8002801D03F
:102CB00072B6FEE713B030BD4038024000700040ED
:102CC0000248016841F470010160704788ED00E03E
:102CD00010B5806B0021C185C184FFF754FB10BD86
:102CE00001680C3151E8002F22F4907241E8002372
:102CF000002BF5D10168143151E8002F22F00102B8
:102D000041E80023002BF5D1016B012909D10168AD
:102D10000C3151E8002F22F0100241E80023002B73
:102D2000F5D1202180F8421000210163704708B5D9
:102D300090F84210222901D0022008BD82684FF489
:102D400080539A4201D1016921B1816A9A421BD014
:102D50004AB10AE00268816A5268C2F308020A8036
:102D6000816A891C08E0026972B10268526802F047
:102D70007F020A70816A491C8162C18D491E090463
:102D8000090CC18503D01BE002685268F1E70168B5
:102D9000CA6822F02002CA600168CA6822F4807200
:102DA000CA6001684A6922F001024A61202180F864
:102DB000421000214163026B012A03D0FFF72EFD70
:102DC000002008BD016301680C3151E8002F22F09A
:102DD000100241E80023002BF5D101680A68D206F1
:102DE00002D50A6849680091818DFFF7CBFAE7E7C1
:102DF00070B5044600680169E26821F4405111434E
:102E000001612169A068E2690843616911430843CF
:102E10002168CA6849F20C639A430243CA60206879
:102E20004169A26921F4407111434161314920682F
:102E3000884202D03049884202D1FFF797F801E07A
:102E4000FFF784F8E2690023192164253226B2F5E0
:102E5000004F626828D0A0FB0101930F9200FDF79C
:102E600015FA0146B0FBF5F06FF01802504301EB84
:102E7000800006EB0010B0FBF5F000F0F002B1FBB3
:102E8000F5F002EB0012B1FBF5F06FF018035843B8
:102E900001EB800006EB0010B0FBF5F000F00F0036
:102EA00021681044886070BDA0FB010192185B414D
:102EB000FDF7ECF90146B0FBF5F00201B1FBF5F0CE
:102EC0006FF01803584301EB800006EBC000B0FB25
:102ED000F5F000F0F80002EB4002B1FBF5F05843CA
:102EE00001EB800006EBC000B0FBF5F000F007003E
:102EF000D6E7000000100140001401402DE9F8431E
:102F0000984617460D460446089E24E0701C22D0C1
:102F1000FEF754FDA0EB0800B0421AD8CEB12068ED
:102F2000C168490717D5802D15D0402D13D00168F1
:102F3000C94309070FD40168002540680090204666
:102F4000FFF7CEFE0820606484F840500120BDE801
:102F5000F8830320FBE72068006835EA000004D00E
:102F60000020B842D2D00020F1E70120F9E70000AC
:102F70000148FFF709BA00008C0000200148FFF764
:102F800003BA0000D4000020FEE703B4019841001A
:102F9000009850EAC12018BF04204A0D18BF40F025
:102FA000010040F2FF72B2EB515F08BF40F0020037
:102FB000012808BF052002B070470907090E002844
:102FC00004DB00F1E02080F80014704700F00F00EF
:102FD00000F1E02080F8141D7047000010B509488A
:102FE00000F064FA00200849024600BF00EB4003ED
:102FF000401CCA540828F9D3BDE81040014800F02D
:103000006CBA0000000000201400002030380A28AC
:1030100001D20120704700207047000010B5040065
:1030200006D0094800F042FA20680178012902D050
:1030300072B6FEF75CFB401C00F038FABDE81040A9
:10304000014800F04ABA00000000002010B504005A
:1030500006D0084800F02AFA20680178012902D039
:1030600072B6FEF744FB00210170BDE81040014834
:1030700000F033BA0000002010B504000ED0124852
:1030800000F014FA1148002101EB4102825C3AB1D0
:10309000491C0829F8D30C4800F01FFA002010BD85
:1030A00001EB410108440121206001702068401CAF
:1030B00007D0002101704170034800F00EFA012092
:1030C00010BD72B6FEF713FB0000002014000020B4
:1030D00010B5040006D0094800F0E8F9206801782E
:1030E000012902D072B6FEF702FB401C00F0F5F990
:1030F000BDE81040014800F0F0B9000000000020D9
:1031000010B500231A4603E0845C6340521CD2B21F
:103110008A42F9D3D843C0B210BD000008B5FEF70B
:10312000E9FDFFF783FD37480024016841F0800185
:103130000160016801F080010091016841F0010126
:103140000160016801F001010091016841F0020194
:10315000016000682C4900F0020000902B480C250B
:1031600001602B49C0E90114C460C0E904458461D1
:10317000C461FFF741FA08B172B6FEE7234825495A
:1031800048304FF4E1360160C0E90164C460C0E931
:1031900004458461C461FFF72FFA08B172B6FEE7F7
:1031A0001A481D4990300160C0E90164C460C0E95B
:1031B00004458461C461FFF71FFA08B172B6FEE7E7
:1031C00012481649543801601549C0E901144FF4FA
:1031D0008041C0E9034144618461C4610462FEF737
:1031E000F3FB08B172B6FEE708490220543900909B
:1031F00010234E22A1F10C00FEF7F2F9FFF7D8FCE4
:10320000FCE7000030380240001001408C00002034
:1032100000181500004400400048004000540040E1
:10322000A08601002DE9F04196B00D46044608291C
:103230006BD32078012868D1B4F80500E77946BA45
:1032400007212046FFF75CFFB84201D042A072E0A0
:10325000A6F52061133904F108000DD0012932D000
:10326000022940D0032953D0334641A22021684689
:10327000FDF784F8684646E0152D46D30546247DC3
:103280000C21FFF73DFFA04201D041A03BE0D5F863
:1032900000806E68A86800F04DF904460D4630467F
:1032A00000F048F906460F46404600F043F90A464A
:1032B0008DE8C5003FA2402106A8CDE90445FDF7F1
:1032C0005DF806A81FE00D2D1FD30546247B0421C1
:1032D000FFF716FFA04201D040A014E0286800F0DC
:1032E00029F947A22FE00D2D0FD30546247B042199
:1032F000FFF706FFA04201D046A004E0286800F0D6
:1033000019F94DA21FE0FFF741FC16B0BDE8F081AE
:10331000112DFAD30546247C0821FFF7F1FEA042C7
:1033200001D04AA007E0E878296860F31F61686867
:10333000012905D04FA016B0BDE8F041FFF726BC2B
:1033400000F0F8F853A2CDE90001202102A8FDF712
:1033500015F802A8D7E7000048656164657220632C
:103360006865636B73756D206572726F720D0A000C
:10337000556E6B6E6F776E206672616D6520747925
:1033800070653A203078253034580D0A000000006E
:103390004461746120636865636B73756D20657249
:1033A000726F7220285068617365205465737429A8
:1033B0000D0A000050686173653A20546F74616CA7
:1033C0003D25662C204272656174683D25662C207F
:1033D00048656172743D25660D0A000044617461A0
:1033E00020636865636B73756D206572726F722000
:1033F000284272656174682052617465290D0A0063
:1034000042726561746820526174653A2025660DC8
:103410000A0000004461746120636865636B737522
:103420006D206572726F7220284865617274205237
:10343000617465290D0A000048656172742052614B
:1034400074653A2025660D0A00000000446174612D
:1034500020636865636B73756D206572726F72208F
:10346000285461726765742044697374616E636582
:10347000290D0A004E6F20746172676574206469BB
:103480007374616E6365206F75747075742E0D0AA8
:10349000000000005461726765742052616E6765B8
:1034A0003A20256620636D0D0A00000010B5EFF389
:1034B000108101F0010272B6BFF34F8FBFF36F8F1F
:1034C00040B1417811B1FF2904D000E00270491CDD
:1034D000417010BD72B6FEF70AF910B558B14178C7
:1034E00049B1491E11F0FF01417003D10078002855
:1034F00000D162B610BD72B6FEF7F9F810B500291A
:103500000AD00878002807D005487844FDF758FC11
:10351000002801D0002010BD0248784410BD0000F2
:10352000220200001A0200000808A0F500114FEA6C
:103530003101704743004FEAD30C4FEA3C0C434043
:103540001FBF40070CF1605113F0FE4F70471CF095
:10355000006F03D100200CF0004170470CF00043D5
:1035600043EA507010B540EACC0000F00EF800BFFE
:10357000000000924FEA0001FFF7D6BF4FF0004174
:103580004FF00000A1F5002170470EF1020E2EF061
:10359000030E5EF8044B244204D44FEA4102B2F118
:1035A0007F4F11D84FEA4003B3F17F4F0CD80ED1B3
:1035B0004FEAD07CB2F17F4F0CEB4C0C0CF1020CBB
:1035C00008BF4CEBD17C04E04FF0080C01E04FEA5F
:1035D000D17C0CEB4C0324FA03F404F00704B4F19F
:1035E000040C06D20EEB840CBDE810404CF0010C2C
:1035F0006047DFE80CF0070802024FF00040A0F53A
:10360000800010BD0846420018BFD2F1807288BF0A
:1036100000F0004010BD4FF04070E1EE100A70471E
:10362000FDF744B90000000000000000010203049F
:10363000060708090000000001020304303132339C
:1036400034353637383941424344454640305800D6
:103650003031323334353637383961626364656608
:103660004030780004000008000000000000000264
:10367000000100001000000002400000000000A057
:103680000000000005400000000000C8000000002D
:103690000C4000000000409C0000000019400000A9
:1036A0000020BCBE0000000034400000BFC91B8EDB
:1036B00000000004B5400000504BCFD06607E2CFB9
:1036C000010000006C4100003E8251AADFEEA734E9
:1036D00001000000D9420000DCB5A0E23A301F979B
:1036E000FFFFFFFFB4450000FD25A0C8E9A3C14FBF
:1036F000FFFFFFFFFF3F0000000000800000000010
:10370000FF3F000000000080000000004C37000870
:103710000000002014000000C40100086037000809
:1037200014000020B4070000E00100081C000000A5
:1037300043000000F8FFFFFF0C0000000E00000037
:103740000F0000002E00000095F8FFFF00000000B1
:103750000100000010000000000000000024F40040
:040000050800018965
:00000001FF
